{
  "contractName": "Blatch",
  "abi": [
    {
      "constant": true,
      "inputs": [
        {
          "name": "",
          "type": "uint256"
        }
      ],
      "name": "videos",
      "outputs": [
        {
          "name": "videoHash",
          "type": "string"
        },
        {
          "name": "video_no",
          "type": "uint256"
        },
        {
          "name": "doctor",
          "type": "bytes32"
        },
        {
          "name": "patient",
          "type": "bytes32"
        },
        {
          "name": "surgeryName",
          "type": "string"
        },
        {
          "name": "surgeryDate",
          "type": "string"
        }
      ],
      "payable": false,
      "stateMutability": "view",
      "type": "function"
    },
    {
      "inputs": [],
      "payable": false,
      "stateMutability": "nonpayable",
      "type": "constructor"
    },
    {
      "constant": false,
      "inputs": [
        {
          "name": "videoNum",
          "type": "uint256"
        },
        {
          "components": [
            {
              "name": "videoHash",
              "type": "string"
            },
            {
              "name": "video_no",
              "type": "uint256"
            },
            {
              "name": "doctor",
              "type": "bytes32"
            },
            {
              "name": "patient",
              "type": "bytes32"
            },
            {
              "name": "surgeryName",
              "type": "string"
            },
            {
              "name": "surgeryDate",
              "type": "string"
            }
          ],
          "name": "data",
          "type": "tuple"
        }
      ],
      "name": "setVideo",
      "outputs": [],
      "payable": false,
      "stateMutability": "nonpayable",
      "type": "function"
    },
    {
      "constant": true,
      "inputs": [
        {
          "name": "videoNum",
          "type": "uint256"
        }
      ],
      "name": "getVideo",
      "outputs": [
        {
          "components": [
            {
              "name": "videoHash",
              "type": "string"
            },
            {
              "name": "video_no",
              "type": "uint256"
            },
            {
              "name": "doctor",
              "type": "bytes32"
            },
            {
              "name": "patient",
              "type": "bytes32"
            },
            {
              "name": "surgeryName",
              "type": "string"
            },
            {
              "name": "surgeryDate",
              "type": "string"
            }
          ],
          "name": "",
          "type": "tuple"
        }
      ],
      "payable": false,
      "stateMutability": "view",
      "type": "function"
    }
  ],
  "bytecode": "0x608060405234801561001057600080fd5b50336000806101000a81548173ffffffffffffffffffffffffffffffffffffffff021916908373ffffffffffffffffffffffffffffffffffffffff160217905550610c51806100606000396000f300608060405260043610610057576000357c0100000000000000000000000000000000000000000000000000000000900463ffffffff16806304d60fce1461005c5780632893eca214610085578063e6821bf5146100c2575b600080fd5b34801561006857600080fd5b50610083600480360361007e91908101906108e4565b610104565b005b34801561009157600080fd5b506100ac60048036036100a791908101906108bb565b610231565b6040516100b99190610b16565b60405180910390f35b3480156100ce57600080fd5b506100e960048036036100e491908101906108bb565b610473565b6040516100fb96959493929190610a80565b60405180910390f35b6000809054906101000a900473ffffffffffffffffffffffffffffffffffffffff1673ffffffffffffffffffffffffffffffffffffffff163373ffffffffffffffffffffffffffffffffffffffff16141515610195576040517f08c379a000000000000000000000000000000000000000000000000000000000815260040161018c90610af6565b60405180910390fd5b806001600084815260200190815260200160002060008201518160000190805190602001906101c5929190610677565b50602082015181600101556040820151816002019060001916905560608201518160030190600019169055608082015181600401908051906020019061020c929190610677565b5060a0820151816005019080519060200190610229929190610677565b509050505050565b6102396106f7565b6001600083815260200190815260200160002060c06040519081016040529081600082018054600181600116156101000203166002900480601f0160208091040260200160405190810160405280929190818152602001828054600181600116156101000203166002900480156102f15780601f106102c6576101008083540402835291602001916102f1565b820191906000526020600020905b8154815290600101906020018083116102d457829003601f168201915b5050505050815260200160018201548152602001600282015460001916600019168152602001600382015460001916600019168152602001600482018054600181600116156101000203166002900480601f0160208091040260200160405190810160405280929190818152602001828054600181600116156101000203166002900480156103c15780601f10610396576101008083540402835291602001916103c1565b820191906000526020600020905b8154815290600101906020018083116103a457829003601f168201915b50505050508152602001600582018054600181600116156101000203166002900480601f0160208091040260200160405190810160405280929190818152602001828054600181600116156101000203166002900480156104635780601f1061043857610100808354040283529160200191610463565b820191906000526020600020905b81548152906001019060200180831161044657829003601f168201915b5050505050815250509050919050565b6001602052806000526040600020600091509050806000018054600181600116156101000203166002900480601f01602080910402602001604051908101604052809291908181526020018280546001816001161561010002031660029004801561051f5780601f106104f45761010080835404028352916020019161051f565b820191906000526020600020905b81548152906001019060200180831161050257829003601f168201915b505050505090806001015490806002015490806003015490806004018054600181600116156101000203166002900480601f0160208091040260200160405190810160405280929190818152602001828054600181600116156101000203166002900480156105cf5780601f106105a4576101008083540402835291602001916105cf565b820191906000526020600020905b8154815290600101906020018083116105b257829003601f168201915b505050505090806005018054600181600116156101000203166002900480601f01602080910402602001604051908101604052809291908181526020018280546001816001161561010002031660029004801561066d5780601f106106425761010080835404028352916020019161066d565b820191906000526020600020905b81548152906001019060200180831161065057829003601f168201915b5050505050905086565b828054600181600116156101000203166002900490600052602060002090601f016020900481019282601f106106b857805160ff19168380011785556106e6565b828001600101855582156106e6579182015b828111156106e55782518255916020019190600101906106ca565b5b5090506106f39190610734565b5090565b60c0604051908101604052806060815260200160008152602001600080191681526020016000801916815260200160608152602001606081525090565b61075691905b8082111561075257600081600090555060010161073a565b5090565b90565b60006107658235610bb0565b905092915050565b600082601f830112151561078057600080fd5b813561079361078e82610b65565b610b38565b915080825260208301602083018583830111156107af57600080fd5b6107ba838284610bc4565b50505092915050565b600060c082840312156107d557600080fd5b6107df60c0610b38565b9050600082013567ffffffffffffffff8111156107fb57600080fd5b6108078482850161076d565b600083015250602061081b848285016108a7565b602083015250604061082f84828501610759565b604083015250606061084384828501610759565b606083015250608082013567ffffffffffffffff81111561086357600080fd5b61086f8482850161076d565b60808301525060a082013567ffffffffffffffff81111561088f57600080fd5b61089b8482850161076d565b60a08301525092915050565b60006108b38235610bba565b905092915050565b6000602082840312156108cd57600080fd5b60006108db848285016108a7565b91505092915050565b600080604083850312156108f757600080fd5b6000610905858286016108a7565b925050602083013567ffffffffffffffff81111561092257600080fd5b61092e858286016107c3565b9150509250929050565b61094181610b9c565b82525050565b600061095282610b91565b808452610966816020860160208601610bd3565b61096f81610c06565b602085010191505092915050565b6000602282527f4f6e6c79206f776e65722063616e2063616c6c20746869732066756e6374696f60208301527f6e2e0000000000000000000000000000000000000000000000000000000000006040830152606082019050919050565b600060c08301600083015184820360008601526109f78282610947565b9150506020830151610a0c6020860182610a71565b506040830151610a1f6040860182610938565b506060830151610a326060860182610938565b5060808301518482036080860152610a4a8282610947565b91505060a083015184820360a0860152610a648282610947565b9150508091505092915050565b610a7a81610ba6565b82525050565b600060c0820190508181036000830152610a9a8189610947565b9050610aa96020830188610a71565b610ab66040830187610938565b610ac36060830186610938565b8181036080830152610ad58185610947565b905081810360a0830152610ae98184610947565b9050979650505050505050565b60006020820190508181036000830152610b0f8161097d565b9050919050565b60006020820190508181036000830152610b3081846109da565b905092915050565b6000604051905081810181811067ffffffffffffffff82111715610b5b57600080fd5b8060405250919050565b600067ffffffffffffffff821115610b7c57600080fd5b601f19601f8301169050602081019050919050565b600081519050919050565b6000819050919050565b6000819050919050565b6000819050919050565b6000819050919050565b82818337600083830152505050565b60005b83811015610bf1578082015181840152602081019050610bd6565b83811115610c00576000848401525b50505050565b6000601f19601f83011690509190505600a265627a7a72305820f90d56d0b16ffae4a53476e3f3685dc8178509f4f7bb4f084a12701633eeab5c6c6578706572696d656e74616cf50037",
  "source": "pragma solidity ^0.4.24;\r\npragma experimental ABIEncoderV2;\r\n\r\ncontract Blatch {\r\n\r\n    address private hospital;\r\n\r\n    struct Video {\r\n        string videoHash;   // video hash 값\r\n        uint video_no;      // video 고유번호\r\n        bytes32 doctor;     // 집도의 성\r\n        bytes32 patient;    // 환자 성\r\n        string surgeryName; //수술명\r\n        string surgeryDate; //수술 날짜\r\n    }\r\n\r\n    mapping(uint => Video) public videos;\r\n\r\n    constructor() public {\r\n        hospital = msg.sender;\r\n    }\r\n\r\n    modifier onlyOwner() {\r\n        require(msg.sender == hospital, \"Only owner can call this function.\");\r\n        _;\r\n    }\r\n\r\n    // video 가 hash 된 string 을 가져와서 상태변수 변경.\r\n    // onlyOwner 를 사용하여 병원측만 해당 변수를 바꿀 수 있음.\r\n    function setVideo(uint videoNum, Video data) public onlyOwner{\r\n        videos[videoNum] = data;\r\n//        videos[videoNum].videoHash = hashedStr;\r\n//        videos[videoNum].video_no = videoNum;\r\n//        videos[videoNum].doctor = '';\r\n//        videos[videoNum].patient = '';\r\n//        videos[videoNum].surgeryName = '';\r\n//        videos[videoNum].surgeryDate = '';\r\n    }\r\n    // video hash 값을 확인하는 함수. 실제 상태변수 변경 X\r\n    function getVideo(uint videoNum) public view returns (Video){\r\n        return videos[videoNum];\r\n    }\r\n}\r\n",
  "sourcePath": "/Users/jun097kim/development/klaytn-workspace/blatch/smart_contract/contracts/Blatch.sol",
  "compiler": {
    "name": "solc",
    "version": "0.4.24+commit.e67f0147.Emscripten.clang"
  },
  "schemaVersion": "2.0.1",
  "updatedAt": "2018-10-27T02:35:33.595Z"
}