{
  "contractName": "Blatch",
  "abi": [
    {
      "constant": true,
      "inputs": [
        {
          "name": "",
          "type": "uint256"
        }
      ],
      "name": "videos",
      "outputs": [
        {
          "name": "videoHash",
          "type": "string"
        },
        {
          "name": "doctor",
          "type": "string"
        },
        {
          "name": "patient",
          "type": "string"
        },
        {
          "name": "surgeryName",
          "type": "string"
        },
        {
          "name": "surgeryDate",
          "type": "string"
        },
        {
          "name": "savePath",
          "type": "string"
        },
        {
          "name": "saveDate",
          "type": "string"
        }
      ],
      "payable": false,
      "stateMutability": "view",
      "type": "function"
    },
    {
      "inputs": [],
      "payable": false,
      "stateMutability": "nonpayable",
      "type": "constructor"
    },
    {
      "constant": false,
      "inputs": [
        {
          "name": "videoNum",
          "type": "uint256"
        },
        {
          "name": "videoHash",
          "type": "string"
        },
        {
          "name": "savePath",
          "type": "string"
        }
      ],
      "name": "setVideo",
      "outputs": [],
      "payable": false,
      "stateMutability": "nonpayable",
      "type": "function"
    },
    {
      "constant": true,
      "inputs": [
        {
          "name": "videoNum",
          "type": "uint256"
        }
      ],
      "name": "getVideo",
      "outputs": [
        {
          "components": [
            {
              "name": "videoHash",
              "type": "string"
            },
            {
              "name": "doctor",
              "type": "string"
            },
            {
              "name": "patient",
              "type": "string"
            },
            {
              "name": "surgeryName",
              "type": "string"
            },
            {
              "name": "surgeryDate",
              "type": "string"
            },
            {
              "name": "savePath",
              "type": "string"
            },
            {
              "name": "saveDate",
              "type": "string"
            }
          ],
          "name": "",
          "type": "tuple"
        }
      ],
      "payable": false,
      "stateMutability": "view",
      "type": "function"
    }
  ],
  "bytecode": "0x608060405234801561001057600080fd5b50336000806101000a81548173ffffffffffffffffffffffffffffffffffffffff021916908373ffffffffffffffffffffffffffffffffffffffff160217905550611022806100606000396000f300608060405260043610610057576000357c0100000000000000000000000000000000000000000000000000000000900463ffffffff1680632893eca21461005c57806354edd98414610099578063e6821bf5146100c2575b600080fd5b34801561006857600080fd5b50610083600480360361007e9190810190610c44565b610105565b6040516100909190610f05565b60405180910390f35b3480156100a557600080fd5b506100c060048036036100bb9190810190610c6d565b6105a1565b005b3480156100ce57600080fd5b506100e960048036036100e49190810190610c44565b61068d565b6040516100fc9796959493929190610e45565b60405180910390f35b61010d610af7565b6001600083815260200190815260200160002060e06040519081016040529081600082018054600181600116156101000203166002900480601f0160208091040260200160405190810160405280929190818152602001828054600181600116156101000203166002900480156101c55780601f1061019a576101008083540402835291602001916101c5565b820191906000526020600020905b8154815290600101906020018083116101a857829003601f168201915b50505050508152602001600182018054600181600116156101000203166002900480601f0160208091040260200160405190810160405280929190818152602001828054600181600116156101000203166002900480156102675780601f1061023c57610100808354040283529160200191610267565b820191906000526020600020905b81548152906001019060200180831161024a57829003601f168201915b50505050508152602001600282018054600181600116156101000203166002900480601f0160208091040260200160405190810160405280929190818152602001828054600181600116156101000203166002900480156103095780601f106102de57610100808354040283529160200191610309565b820191906000526020600020905b8154815290600101906020018083116102ec57829003601f168201915b50505050508152602001600382018054600181600116156101000203166002900480601f0160208091040260200160405190810160405280929190818152602001828054600181600116156101000203166002900480156103ab5780601f10610380576101008083540402835291602001916103ab565b820191906000526020600020905b81548152906001019060200180831161038e57829003601f168201915b50505050508152602001600482018054600181600116156101000203166002900480601f01602080910402602001604051908101604052809291908181526020018280546001816001161561010002031660029004801561044d5780601f106104225761010080835404028352916020019161044d565b820191906000526020600020905b81548152906001019060200180831161043057829003601f168201915b50505050508152602001600582018054600181600116156101000203166002900480601f0160208091040260200160405190810160405280929190818152602001828054600181600116156101000203166002900480156104ef5780601f106104c4576101008083540402835291602001916104ef565b820191906000526020600020905b8154815290600101906020018083116104d257829003601f168201915b50505050508152602001600682018054600181600116156101000203166002900480601f0160208091040260200160405190810160405280929190818152602001828054600181600116156101000203166002900480156105915780601f1061056657610100808354040283529160200191610591565b820191906000526020600020905b81548152906001019060200180831161057457829003601f168201915b5050505050815250509050919050565b6000809054906101000a900473ffffffffffffffffffffffffffffffffffffffff1673ffffffffffffffffffffffffffffffffffffffff163373ffffffffffffffffffffffffffffffffffffffff16141515610632576040517f08c379a000000000000000000000000000000000000000000000000000000000815260040161062990610ee5565b60405180910390fd5b8160016000858152602001908152602001600020600001908051906020019061065c929190610b35565b5080600160008581526020019081526020016000206005019080519060200190610687929190610b35565b50505050565b6001602052806000526040600020600091509050806000018054600181600116156101000203166002900480601f0160208091040260200160405190810160405280929190818152602001828054600181600116156101000203166002900480156107395780601f1061070e57610100808354040283529160200191610739565b820191906000526020600020905b81548152906001019060200180831161071c57829003601f168201915b505050505090806001018054600181600116156101000203166002900480601f0160208091040260200160405190810160405280929190818152602001828054600181600116156101000203166002900480156107d75780601f106107ac576101008083540402835291602001916107d7565b820191906000526020600020905b8154815290600101906020018083116107ba57829003601f168201915b505050505090806002018054600181600116156101000203166002900480601f0160208091040260200160405190810160405280929190818152602001828054600181600116156101000203166002900480156108755780601f1061084a57610100808354040283529160200191610875565b820191906000526020600020905b81548152906001019060200180831161085857829003601f168201915b505050505090806003018054600181600116156101000203166002900480601f0160208091040260200160405190810160405280929190818152602001828054600181600116156101000203166002900480156109135780601f106108e857610100808354040283529160200191610913565b820191906000526020600020905b8154815290600101906020018083116108f657829003601f168201915b505050505090806004018054600181600116156101000203166002900480601f0160208091040260200160405190810160405280929190818152602001828054600181600116156101000203166002900480156109b15780601f10610986576101008083540402835291602001916109b1565b820191906000526020600020905b81548152906001019060200180831161099457829003601f168201915b505050505090806005018054600181600116156101000203166002900480601f016020809104026020016040519081016040528092919081815260200182805460018160011615610100020316600290048015610a4f5780601f10610a2457610100808354040283529160200191610a4f565b820191906000526020600020905b815481529060010190602001808311610a3257829003601f168201915b505050505090806006018054600181600116156101000203166002900480601f016020809104026020016040519081016040528092919081815260200182805460018160011615610100020316600290048015610aed5780601f10610ac257610100808354040283529160200191610aed565b820191906000526020600020905b815481529060010190602001808311610ad057829003601f168201915b5050505050905087565b60e060405190810160405280606081526020016060815260200160608152602001606081526020016060815260200160608152602001606081525090565b828054600181600116156101000203166002900490600052602060002090601f016020900481019282601f10610b7657805160ff1916838001178555610ba4565b82800160010185558215610ba4579182015b82811115610ba3578251825591602001919060010190610b88565b5b509050610bb19190610bb5565b5090565b610bd791905b80821115610bd3576000816000905550600101610bbb565b5090565b90565b600082601f8301121515610bed57600080fd5b8135610c00610bfb82610f54565b610f27565b91508082526020830160208301858383011115610c1c57600080fd5b610c27838284610f95565b50505092915050565b6000610c3c8235610f8b565b905092915050565b600060208284031215610c5657600080fd5b6000610c6484828501610c30565b91505092915050565b600080600060608486031215610c8257600080fd5b6000610c9086828701610c30565b935050602084013567ffffffffffffffff811115610cad57600080fd5b610cb986828701610bda565b925050604084013567ffffffffffffffff811115610cd657600080fd5b610ce286828701610bda565b9150509250925092565b6000610cf782610f80565b808452610d0b816020860160208601610fa4565b610d1481610fd7565b602085010191505092915050565b6000602282527f4f6e6c79206f776e65722063616e2063616c6c20746869732066756e6374696f60208301527f6e2e0000000000000000000000000000000000000000000000000000000000006040830152606082019050919050565b600060e0830160008301518482036000860152610d9c8282610cec565b91505060208301518482036020860152610db68282610cec565b91505060408301518482036040860152610dd08282610cec565b91505060608301518482036060860152610dea8282610cec565b91505060808301518482036080860152610e048282610cec565b91505060a083015184820360a0860152610e1e8282610cec565b91505060c083015184820360c0860152610e388282610cec565b9150508091505092915050565b600060e0820190508181036000830152610e5f818a610cec565b90508181036020830152610e738189610cec565b90508181036040830152610e878188610cec565b90508181036060830152610e9b8187610cec565b90508181036080830152610eaf8186610cec565b905081810360a0830152610ec38185610cec565b905081810360c0830152610ed78184610cec565b905098975050505050505050565b60006020820190508181036000830152610efe81610d22565b9050919050565b60006020820190508181036000830152610f1f8184610d7f565b905092915050565b6000604051905081810181811067ffffffffffffffff82111715610f4a57600080fd5b8060405250919050565b600067ffffffffffffffff821115610f6b57600080fd5b601f19601f8301169050602081019050919050565b600081519050919050565b6000819050919050565b82818337600083830152505050565b60005b83811015610fc2578082015181840152602081019050610fa7565b83811115610fd1576000848401525b50505050565b6000601f19601f83011690509190505600a265627a7a72305820fe9f50a560f831ced57a5bb8f4cc0ef01b9f14610b05523131e7d6a60c3adb2b6c6578706572696d656e74616cf50037",
  "source": "pragma solidity ^0.4.24;\r\npragma experimental ABIEncoderV2;\r\n\r\ncontract Blatch {\r\n\r\n    address private hospital;\r\n\r\n    struct Video {\r\n        string videoHash;   // video hash 값\r\n        string doctor;     // 집도의 성\r\n        string patient;    // 환자 성\r\n        string surgeryName; // 수술명\r\n        string surgeryDate; // 수술 날짜\r\n        string savePath;    // video 저장 위치\r\n        string saveDate;    // video 저장 일시\r\n    }\r\n\r\n    mapping(uint => Video) public videos;\r\n\r\n    constructor() public {\r\n        hospital = msg.sender;\r\n    }\r\n\r\n    modifier onlyOwner() {\r\n        require(msg.sender == hospital, \"Only owner can call this function.\");\r\n        _;\r\n    }\r\n\r\n    // video 가 hash 된 string 을 가져와서 상태변수 변경.\r\n    // onlyOwner 를 사용하여 병원측만 해당 변수를 바꿀 수 있음.\r\n    function setVideo(uint videoNum, string videoHash, string savePath) public onlyOwner{\r\n        videos[videoNum].videoHash = videoHash;\r\n        videos[videoNum].savePath = savePath;\r\n    }\r\n    \r\n    // video hash 값을 확인하는 함수. 실제 상태변수 변경 X\r\n    function getVideo(uint videoNum) public view returns (Video){\r\n        return videos[videoNum];\r\n    }\r\n}\r\n",
  "sourcePath": "/Users/jun097kim/development/klaytn-workspace/blatch/smart_contract/contracts/Blatch.sol",
  "compiler": {
    "name": "solc",
    "version": "0.4.24+commit.e67f0147.Emscripten.clang"
  },
  "schemaVersion": "2.0.1",
  "updatedAt": "2018-10-27T21:01:18.148Z"
}