{
  "contractName": "Counter",
  "abi": [
    {
      "constant": true,
      "inputs": [],
      "name": "count",
      "outputs": [
        {
          "name": "",
          "type": "uint256"
        }
      ],
      "payable": false,
      "stateMutability": "view",
      "type": "function"
    },
    {
      "inputs": [],
      "payable": false,
      "stateMutability": "nonpayable",
      "type": "constructor"
    },
    {
      "constant": false,
      "inputs": [],
      "name": "plus",
      "outputs": [],
      "payable": false,
      "stateMutability": "nonpayable",
      "type": "function"
    },
    {
      "constant": false,
      "inputs": [],
      "name": "minus",
      "outputs": [],
      "payable": false,
      "stateMutability": "nonpayable",
      "type": "function"
    },
    {
      "constant": false,
      "inputs": [],
      "name": "reset",
      "outputs": [],
      "payable": false,
      "stateMutability": "nonpayable",
      "type": "function"
    }
  ],
  "bytecode": "0x608060405234801561001057600080fd5b50336000806101000a81548173ffffffffffffffffffffffffffffffffffffffff021916908373ffffffffffffffffffffffffffffffffffffffff1602179055506000600181905550610217806100686000396000f300608060405260043610610062576000357c0100000000000000000000000000000000000000000000000000000000900463ffffffff16806306661abd1461006757806314434fa51461009257806318b0c3fd146100a9578063d826f88f146100c0575b600080fd5b34801561007357600080fd5b5061007c6100d7565b6040518082815260200191505060405180910390f35b34801561009e57600080fd5b506100a76100dd565b005b3480156100b557600080fd5b506100be6100ea565b005b3480156100cc57600080fd5b506100d56100f7565b005b60015481565b6001805403600181905550565b6001805401600181905550565b6000809054906101000a900473ffffffffffffffffffffffffffffffffffffffff1673ffffffffffffffffffffffffffffffffffffffff163373ffffffffffffffffffffffffffffffffffffffff161415156101e1576040517f08c379a00000000000000000000000000000000000000000000000000000000081526004018080602001828103825260228152602001807f4f6e6c79206f776e65722063616e2063616c6c20746869732066756e6374696f81526020017f6e2e00000000000000000000000000000000000000000000000000000000000081525060400191505060405180910390fd5b60006001819055505600a165627a7a7230582044cf05e8a5928cfcb50eb5dcadfadfb074d383d9d567bc85bcb8362220eac9cb0029",
  "source": "pragma solidity ^0.4.24;\n\ncontract Counter {\n    address private owner;\n    uint public count;\n\n    constructor() public {\n        owner = msg.sender;\n        count = 0;\n    }\n\n    modifier onlyOwner() {\n        require(msg.sender == owner, \"Only owner can call this function.\");\n        _;\n    }\n\n    function plus() public {\n        count = count + 1;\n    }\n\n    function minus() public {\n        count = count - 1;\n    }\n\n    function reset() public onlyOwner {\n        count = 0;\n    }\n}",
  "sourcePath": "/Users/jun097kim/development/klaytn-workspace/blatch/smart_contract/contracts/Counter.sol",
  "compiler": {
    "name": "solc",
    "version": "0.4.24+commit.e67f0147.Emscripten.clang"
  },
  "schemaVersion": "2.0.1",
  "updatedAt": "2018-10-27T21:01:09.562Z"
}